:060000000A128A110E280D
:10000800FE00030EF2000A08F3007F08F4000A124B
:100018008A11882E0A128A111128F701F801831211
:100028000313E601E701E801E901EA01EB01EC014C
:10003800ED01EE01EF0183010A128A11AF2E83123E
:1000480003134B088039D5004B08D0005007DB005C
:10005800CA1F2F28302831285B145B08031935285C
:10006800362845285B0A031D3A283B2843280030D8
:10007800CB000030CA000030C9000030C800CA17E1
:100088004D280030CB000030CA000030C9000030D5
:10009800C8004F088039FF007F08D5064F08D000F8
:1000A8005007D600CE1F59285A285B2856145608E0
:1000B80003195F2860286F28560A031D64286528DD
:1000C8006D280030CF000030CE000030CD00003069
:1000D800CC00CE1777280030CF000030CE0000309B
:1000E800CD000030CC00560803197B287C288128D5
:1000F8005B08031D802881288A280030CB00003047
:10010800CA000030C9000030C800672B4808F50055
:100118004E080A128A115F260A128A11760883127B
:100128000313E1007508E0006008D000D101D20196
:10013800D3015308DA005208D9005108D8005008F2
:10014800D7006108D000D101D201D3015308DF00E4
:100158005208DE005108DD005008DC004908F500AF
:100168004D080A128A115F260A128A11760883122C
:100178000313E1007508E0006008D000D101D20146
:10018800D3015008D707510803110318013E03197A
:10019800CE28D807520803110318013E0319D528A1
:1001A800D907530803110318013E0319DC28DA079D
:1001B8006108D000D101D201D3015008DC075108F1
:1001C80003110318013E0319EA28DD075208031139
:1001D8000318013E0319F128DE0753080311031819
:1001E800013E0319F828DF074A08F5004C080A12EF
:1001F8008A115F260A128A11760883120313E10016
:100208007508E0006008D000D101D201D301500880
:10021800D707510803110318013E03191429D807F9
:10022800520803110318013E03191B29D907530863
:1002380003110318013E03192229DA076108D000C7
:10024800D101D201D3015008DC075108031103186A
:10025800013E03193029DD07520803110318013E36
:1002680003193729DE07530803110318013E031940
:100278003E29DF070830D0000310D70DD80DD90D5F
:10028800DA0DD00B40294908F5004C080A128A11EA
:100298005F260A128A11760883120313E100750893
:1002A800E0006008D0006108D100D201D3015008F5
:1002B800D707510803110318013E03196429D80709
:1002C800520803110318013E03196B29D907530873
:1002D80003110318013E03197229DA074808F500CB
:1002E8004D080A128A115F260A128A1176088312AB
:1002F8000313E1007508E0006008D0006108D10030
:10030800D201D3015008D707510803110318013E41
:1003180003198F29D807520803110318013E03193E
:100328009629D907530803110318013E03199D297B
:10033800DA070830D0000310D70DD80DD90DDA0D23
:10034800D00B9F294808F5004C080A128A115F262D
:100358000A128A11760883120313E1007508E00077
:100368006008D0006108D100D201D3015008D70736
:10037800510803110318013E0319C329D80752086D
:1003880003110318013E0319CA29D9075308031199
:100398000318013E0319D129DA074908F5004E0868
:1003A8000A128A115F260A128A1176088312031329
:1003B800E1007508E0006008D0006108D100D201B2
:1003C800D3015008DC07510803110318013E031933
:1003D800EE29DD07520803110318013E0319F52918
:1003E800DE07530803110318013E0319FC29DF0730
:1003F8004A08F5004D080A128A115F260A128A1166
:10040800760883120313E1007508E0006008D00045
:100418006108D100D201D3015008DC07510803114B
:100428000318013E0319192ADD075208031103189E
:10043800013E0319202ADE07530803110318013E61
:100448000319272ADF074A08F5004E080A128A11FD
:100458005F260A128A11760883120313E1007508D1
:10046800E0006008D0006108D100D201D301083053
:100478000310D00DD10DD20DD30DFF3E031D3C2A24
:100488005008DC07510803110318013E03194D2ACF
:10049800DD07520803110318013E0319542ADE0729
:1004A800530803110318013E03195B2ADF07570895
:1004B800D0005808D1005908D2005A08D300183083
:1004C8000310D30CD20CD10CD00CFF3E031D642AB0
:1004D8005008DC07510803110318013E0319752A57
:1004E800DD07520803110318013E03197C2ADE07B1
:1004F800530803110318013E0319832ADF07083044
:10050800D0000310D70DD80DD90DDA0DD00B852AE0
:100518005B085607D000D101D10D5008823EE0009B
:1005280051080318013EFF3EE100B72A0130D00010
:100538000310DC0DDD0DDE0DDF0DD00B9C2ADA1F5C
:10054800A62AA72AA82A5C140130D0000310D70DC8
:10055800D80DD90DDA0DD00BAA2AFF30E007031801
:10056800E10AFF30E107DE1FBA2ABB2A9A2AD60120
:10057800DA1FBF2AC02ADC2AFF305705D000FF3017
:100588005805D100FF305905D2007F305A05D300F5
:1005980053085204510450040319D32AD42AD72AE1
:1005A800D601D60ADC2A5C1CDA2ADB2ADC2AD42A01
:1005B80056080319E02AE12A122B0130DC07003023
:1005C80003180130DD07003003180130DE07003062
:1005D80003180130DF075F1CF22AF32A122B5C088C
:1005E800D0005D08D1005E08D2005F08D30001305A
:1005F800D400530DD30CD20CD10CD00CD40BFD2A43
:100608005308DF005208DE005108DD005008DC0006
:100618000130E0070318E10A0030E1076108803A79
:10062800FF0080307F02031D1B2BFF306002031C7C
:100638001E2B1F2B2A2B7F3083120313DF008030E1
:10064800DE000030DD000030DC005B2B831203137A
:100658006108803AFF0080307F02031D352B01308E
:1006680060020318382B392B452B003083120313F3
:10067800DF000030DE000030DD000030DC00D50196
:100688005B2B831203136008DB00FF30DC05FF30AF
:10069800DD057F30DE050030DF055B1C542B552B54
:1006A800562BDE175B08D0000310500CDF005508EE
:1006B800FF007F08DF045F08CB005E08CA005D0802
:1006C800C9005C08C8000800831203133508803984
:1006D800BF003508B6003607C600B41F742B752B4B
:1006E800762B4614460803197A2B7B2B8B2B460A4C
:1006F800031D7F2B802B882B0030B5000030B40001
:100708000030B3000030B200B417B501932B0030AD
:10071800B5000030B4000030B3000030B20031083A
:100728008039FF007F08BF063108B6003607C700CA
:10073800B01F9F2BA02BA12B471447080319A52BEB
:10074800A62BB62B470A031DAA2BAB2BB32B0030C5
:10075800B1000030B0000030AF000030AE00B0177C
:10076800B101BE2B0030B1000030B0000030AF0046
:100778000030AE00310830042F042E04031DC52BB1
:10078800C62BDF2B0030B5000030B4000030B300BA
:100798000030B2008030B4047F30B5043F08FF0059
:1007A8007F08B5043508B1003408B0003308AF003D
:1007B8003208AE00362D4608031DE32BE42BED2B43
:1007C8000030B1000030B0000030AF000030AE00A3
:1007D800362D4608B600B7013708B9004708360273
:1007E800B800031CB90338087F3EC0003908031855
:1007F800013E003EC1003508BE003408BD00330884
:10080800BC003208BB000030B5000030B400003036
:10081800B3000030B2000030C5000030C400003022
:10082800C3000030C200C701632C470803191D2C00
:100838001E2C3E2C0130B6000310BB0DBC0DBD0DA7
:10084800BE0DB60B202C0130B6000310B20DB30D4F
:10085800B40DB50DB60B292CC51F332C342C352CF3
:1008680032140130B6000310C20DC30DC40DC50DFE
:10087800B60B372C31083E02031D4C2C30083D02C4
:10088800031D4C2C2F083C02031D4C2C2E083B0248
:10089800031C4F2C502C5F2C45172E08BB022F0829
:1008A800031C2F0FBC023008031C300FBD02310897
:1008B800031C310FBE020130FF007F08C7071A3042
:1008C8004702031C682C692C192C3E083D043C0483
:1008D8003B040319702C712C902C4214902C01307D
:1008E800B6000310B20DB30DB40DB50DB60B752CD3
:1008F800C51F7F2C802C812C32140130B6000310C8
:10090800C20DC30DC40DC50DB60B832CFF30C00737
:100918000318C10AFF30C107B41F932C942C732C01
:10092800C701C51F982C992CB52CFF304205B6007D
:10093800FF304305B700FF304405B8007F30450558
:10094800B90039083804370436040319AC2CAD2C27
:10095800B02CC701C70AB52C321CB32CB42CB52C4B
:10096800AD2C47080319B92CBA2CEB2C0130B2076F
:10097800003003180130B307003003180130B40702
:10098800003003180130B507351CCB2CCC2CEB2CD0
:100998003208B6003308B7003408B8003508B90083
:1009A8000130BA00390DB90CB80CB70CB60CBA0B3B
:1009B800D62C3908B5003808B4003708B300360813
:1009C800B2000130C0070318C10A0030C10741084E
:1009D800803AFF0080307F02031DF42CFF30400274
:1009E800031CF72CF82C062DFF3083120313C000CC
:1009F8000030C1000030B5000030B4000030B30052
:100A08000030B200831203134108803AFF0080309F
:100A18007F02031D112D013040020318142D152DDE
:100A2800222D83120313C001C1010030B50000302C
:100A3800B4000030B3000030B200BF0183120313CA
:100A48004008C600461C292D2A2D2C2DB417302D00
:100A58007F30FF007F08B4054608B6000310360C47
:100A6800B500D22B080083120313A8002808031925
:100A78003E2D3F2D532DA31F422D432D532D2009CD
:100A8800AA002109AB002209AC002309AD00AA0A7B
:100A98000319AB0A0319AC0A0319AD0A5B2D230825
:100AA800AD002208AC002108AB002008AA002308EA
:100AB800220421042004031D622D632D6C2D0030B7
:100AC800A3000030A2000030A1000030A000F02DEB
:100AD8009630A9007C2D0130FF007F08A90701305E
:100AE8000310AD0CAC0CAB0CAA0CFF3E031D742D0F
:100AF800FE302D05031D812D822D6F2D9E2D013079
:100B0800FF007F08A9070130AA0700300318013049
:100B1800AB07003003180130AC0700300318013070
:100B2800AD0701300310AD0CAC0CAB0CAA0CFF3EAA
:100B3800031D962DFF302D05031DA32DA42D832DF8
:100B4800B02D0130A9020130A4000310AA0DAB0D8D
:100B5800AC0DAD0DA40BA92DAC1BB32DB42DBA2D26
:100B6800023029020318B92DBA2DA52D2918BD2D3B
:100B7800BE2DC62DFF30AA05FF30AB057F30AC0572
:100B8800FF30AD050310A90C2908A400A501A60192
:100B9800A70118300310A40DA50DA60DA70DFF3E43
:100BA800031DCE2D2408AA042508AB042608AC048E
:100BB8002708AD0428080319E22DE32DE82DA31F0B
:100BC800E62DE72DE82DAD172D08A3002C08A2006F
:100BD8002B08A1002A08A000080042308312031342
:100BE800CB00C830CA000030C9000030C80040300F
:100BF800B1000230B000F130AF00AA30AE006E088C
:100C0800A0006F08A1000030A11BFF30A200A300C4
:100C180001300A128A1137250A128A118312031326
:100C28002308B5002208B4002108B3002008B20048
:100C38000A128A1168230A128A11831203133108CF
:100C4800CF003008CE002F08CD002E08CC000A12A5
:100C58008A1123200A128A11831203134B08831660
:100C68000313A300831203134A0883160313A20075
:100C780083120313490883160313A1008312031375
:100C8800480883160313A000230883120313E50002
:100C980083160313220883120313E4008316031335
:100CA800210883120313E300831603132008831219
:100CB8000313E200080083120313A600A201A30194
:100CC8007508A000A1012008A4002108A500261C81
:100CD8006E2E6F2E752E2408A2070318A30A250866
:100CE800A30701300310A40DA50DFF3E031D762EAA
:100CF8000310A60C2608031D822E832E6B2E2308B4
:100D0800F6002208F5000800831203130C1F8D2E2D
:100D18008E2EA62E1E08F000F1017008F100F001D9
:100D28007008EE007108EF006E08831603131E04A6
:100D3800F000831203136F08F1007008EE007108C9
:100D4800EF000C137408FF0073088A00720E83000A
:100D5800FE0E7E0E09000A128A11CB260A128A118B
:100D68000A128A11C2260A128A110A128A11F12558
:100D78000A128A11B92E0A128A110E2841308312DA
:100D880003139F008E30831603139F0008008B17F0
:0A0D98000B17831603130C17080055
:02400E007A3FF7
:00000001FF
