:100000000A128A11FC2F00308A000408840A820731
:10001000003461347534743468346F34723420348D
:100020003A342034543468347534793400346534C7
:100030006D3462346534643464346534643420343B
:0400400063340034F1
:100E880014300A128A114B270A128A110800F2003C
:100E98007208831203138700081008110815073019
:100EA800F1007D30F000F00B572FF10B572F831214
:100EB800031308110800F200720883120313870055
:100EC8000814081108150730F1007D30F000F00B08
:100ED8006B2FF10B6B2F83120313081108003830A6
:100EE8000A128A114B270A128A1106300A128A112D
:100EF8004B270A128A110C300A128A114B270A1240
:100F08008A1181300A128A114B270A128A110800A5
:100F1800F400F501A02F7508740784000A128A11DD
:100F280003200A128A110A128A115F270A128A11EB
:100F38000130FF007F08F50773087502031CA52F11
:100F4800A62F8F2F080075087604031DAC2FAD2F30
:100F5800B52F7308803E0A128A114B270A128A118C
:100F6800C22F75037604031DBA2FBB2FC22F730837
:100F7800C03E0A128A114B270A128A1108008316EA
:100F88000313870188010A128A1173270A128A112A
:100F98000030F300F4000030F500F6000A128A1160
:100FA800A7270A128A110A128A1144270A128A11DB
:100FB8000A30F3000F300A128A118C270A128A119C
:100FC8000030F300F4000130F5000030F6000A129A
:100FD8008A11A7270A128A110D30F30001300A126C
:100FE8008A118C270A128A11CC2F0A128A1100281A
:080FF80083010A128A11C32FC4
:02400E007A3FF7
:00000001FF
