:060000000A128A11FA2F1A
:100E38008312031393018C1D222F232F1F2F1308B6
:100E48000800700883120313930083160313141CFD
:100E58002E2F2F2F292F0800F600831203130610B8
:100E68000230F0000030F1000A128A1125270A1218
:100E78008A117608F400F5017408F0007508F1008D
:100E88000A128A1125270A128A117208F400F5013C
:100E98007408F0007508F1000A128A1125270A1251
:100EA8008A117308F400F5017408F0007508F10060
:100EB8000A128A1125270A128A11831203130614AB
:100EC8000800F5008312031306100330F000003009
:100ED800F1000A128A1125270A128A117508F300EF
:100EE800F4017308F0007408F1000A128A1125272A
:100EF8000A128A117208F300F4017308F0007408EA
:100F0800F1000A128A1125270A128A11831603137F
:100F1800141C8F2F902F8A2F0A128A111C270A124D
:100F28008A11F300F4017308FA007408FB008312B5
:100F38000313061408008316031387110716871274
:100F480006102030831203139400831603139401B0
:100F58008312031306100630F0000030F1000A1265
:100F68008A1125270A128A118312031306144330A3
:100F7800F2000930F30003300A128A1130270A12EE
:100F88008A111A30F9005E30F8006E30F700F70B5E
:100F9800CB2FF80BCB2FF90BCB2F000083120313A9
:100FA80006100430F0000030F1000A128A112527DB
:100FB8000A128A118312031306141A30F9005E30DC
:100FC800F8006E30F700F70BE72FF80BE72FF90B57
:100FD800E72F00004330F20003300A128A11652718
:100FE8000A128A11F62F0A128A110028FA01FB0147
:080FF80083010A128A119F2FE8
:02400E007A3FF7
:00000001FF
