:060000000A128A11EE2F26
:100F24007E088A007F0882000A128A1192270A1218
:100F34008A118000840A04087D0603190034FF0A1C
:100F44000319FE0A962FC0340034F9340034A43453
:100F54000034B03400349934003492340034823490
:100F64000034F83400348034003490340034831670
:100F740003138601F301F4017308F0007007203EA7
:100F84008400831300088312031386000330F200E5
:100F94008A30F1005530F000F00BCE2FF10BCE2F3C
:100FA400F20BCE2FD52F0130F3070318F40A0030CB
:100FB400F4077408803AFF0080307F02031DE42F99
:100FC4000A307302031CE72FE82FBE2FF301F4014C
:100FD400BE2F0A128A11002883133430FD00073013
:100FE400FE00A530FF00203084000A128A119627E3
:0C0FF4000A128A1183010A128A11B92F17
:02400E007A3FF7
:00000001FF
