:100000000A128A11FC2F00308A000408840A820731
:1000100000346B34653479347034613464343A3488
:040020002034003454
:100D0A00F2007208831203138700081408110815E9
:100D1A000730F1007D30F000F00B912EF10B912E8F
:100D2A008312031308110800F200720883120313D6
:100D3A0087000810081108150730F1007D30F0000F
:100D4A00F00BA52EF10BA52E831203130811080030
:100D5A0038300A128A1199260A128A1106300A12A2
:100D6A008A1199260A128A110C300A128A119926B6
:100D7A000A128A1181300A128A1199260A128A11D4
:100D8A000800F400F501DA2E7508740784000A12C7
:100D9A008A1103200A128A110A128A1185260A1256
:100DAA008A110130FF007F08F50773087502031CDA
:100DBA00DF2EE02EC92E080075087604031DE62EE4
:100DCA00E72EEF2E7308803E0A128A1199260A121C
:100DDA008A11FC2E75037604031DF42EF52EFC2EC3
:100DEA007308C03E0A128A1199260A128A1108004B
:100DFA008316031387018801F03086000A128A11CC
:100E0A00AD260A128A110030F300F4000030F50012
:100E1A00F6000A128A11E1260A128A110830F30032
:100E2A0001300A128A11C6260A128A110030F3000A
:100E3A00F4000130F5000030F6000A128A11E126AA
:100E4A000A128A110A128A1130270A128A11272FC6
:100E5A000A128A1100288312031306148610061137
:100E6A00061E382F392F452F31300A128A1185264E
:100E7A000A128A1183120313061A442F452F3F2F91
:100E8A00861E482F492F552F34300A128A1185267B
:100E9A000A128A1183120313861A542F552F4F2FC1
:100EAA00061F582F592F652F37300A128A118526A7
:100EBA000A128A1183120313061B642F652F5F2FF0
:100ECA00861F682F692F752F2A300A128A118526E4
:100EDA000A128A1183120313861B742F752F6F2F20
:100EEA00061086140611061E7B2F7C2F882F32309F
:100EFA000A128A1185260A128A1183120313061A04
:100F0A00872F882F822F861E8B2F8C2F982F353074
:100F1A000A128A1185260A128A1183120313861A63
:100F2A00972F982F922F061F9B2F9C2FA82F383070
:100F3A000A128A1185260A128A1183120313061BC2
:100F4A00A72FA82FA22F861FAB2FAC2FB82F303078
:100F5A000A128A1185260A128A1183120313861B22
:100F6A00B72FB82FB22F061086100615061EBE2FF1
:100F7A00BF2FCB2F33300A128A1185260A128A1103
:100F8A0083120313061ACA2FCB2FC52F861ECE2F04
:100F9A00CF2FDB2F36300A128A1185260A128A11C0
:100FAA0083120313861ADA2FDB2FD52F061FDE2FA3
:100FBA00DF2FEB2F39300A128A1185260A128A117D
:100FCA0083120313061BEA2FEB2FE52F861FEE2F42
:100FDA00EF2FFB2F23300A128A1185260A128A1153
:100FEA0083120313861BFA2FFB2FF52F08008301A8
:060FFA000A128A11FD2E0F
:02400E007A3FF7
:00000001FF
