:060000000A128A110E280D
:10000800FE00030EF0000A08F1007F08F2000A1251
:100018008A1144280A128A111128F30183010A124D
:100028008A1116288B170B178B16831603130113C7
:10003800811281110115811401143B3083120313BD
:1000480081008316031306107308031D2C282D281E
:10005800302883120313061432307306031D352823
:1000680036283928831203130610C8307306031D77
:100078003E283F282828F30128280A128A110E282A
:100088000B1D472848284D280130FF007F08F3073B
:100098000B117208FF0071088A00700E8300FE0EB3
:0400A8007E0E0900BF
:02400E007A3FF7
:00000001FF
